:100000000C945C000C946E000C946E000C946E00CA
:100010000C946E000C946E000C946E000C946E00A8
:100020000C946E000C946E000C946E000C946E0098
:100030000C946E000C946E000C946E000C946E0088
:100040000C94F9000C946E000C946E000C946E00ED
:100050000C946E000C946E000C946E000C946E0068
:100060000C946E000C946E00000000080002010069
:100070000003040700000000000000000000000072
:10008000250028002B0000000000240027002A0083
:10009000040404040404040402020202020203032E
:1000A0000303030301020408102040800102040836
:1000B000102001020408102011241FBECFEFD8E049
:1000C000DEBFCDBF21E0A0E0B1E001C01D92AB30AA
:1000D000B207E1F70E9443010C941D020C9400004A
:1000E000EFEAF0E02491EBE9F0E08491882399F0C5
:1000F00090E0880F991FFC01EA57FF4FA591B4913A
:10010000FC01E458FF4F859194918FB7F894EC91DE
:10011000E22BEC938FBF0895E3E7F0E02491EFEA40
:10012000F0E09491EBE9F0E0E491EE23C9F02223B2
:1001300039F0233001F1A8F4213019F1223029F1EE
:10014000F0E0EE0FFF1FE458FF4FA591B4912FB7D9
:10015000F894EC91811126C090959E239C932FBF1B
:1001600008952730A9F02830C9F0243049F72091AC
:1001700080002F7D03C0209180002F772093800086
:10018000DFCF24B52F7724BDDBCF24B52F7DFBCF68
:100190002091B0002F772093B000D2CF2091B000F3
:1001A0002F7DF9CF9E2BDACF3FB7F89480910501D0
:1001B00090910601A0910701B091080126B5A89B76
:1001C00005C02F3F19F00196A11DB11D3FBFBA2FE9
:1001D000A92F982F8827BC01CD01620F711D811DA9
:1001E000911D42E0660F771F881F991F4A95D1F72E
:1001F00008951F920F920FB60F9211242F933F93E1
:100200008F939F93AF93BF938091010190910201CF
:10021000A0910301B09104013091000123E0230F6C
:100220002D3758F50196A11DB11D20930001809333
:10023000010190930201A0930301B0930401809106
:10024000050190910601A0910701B0910801019666
:10025000A11DB11D8093050190930601A093070194
:10026000B0930801BF91AF919F918F913F912F91D2
:100270000F900FBE0F901F90189526E8230F02963F
:10028000A11DB11DD2CF789484B5826084BD84B5A0
:10029000816084BD85B5826085BD85B5816085BD81
:1002A00080916E00816080936E0010928100809139
:1002B00081008260809381008091810081608093C1
:1002C0008100809180008160809380008091B100E6
:1002D00084608093B1008091B00081608093B00011
:1002E00080917A00846080937A0080917A008260A5
:1002F00080937A0080917A00816080937A00809167
:100300007A00806880937A001092C1000E94700089
:1003100093E7E92E90E0F92E00E010E010920A0138
:1003200010920901C0910901D0910A01CF3FD10576
:1003300011F00CF057C00E947000209769F480E023
:100340000E948C008091090190910A01059690937A
:100350000A0180930901E6CFCF3FD10511F481E076
:10036000EFCFF7018491833019F140F48130B1F07F
:100370008230C9F0C038D10594F7E1CF873011F150
:10038000883041F18430B1F78091800080628093A1
:100390008000D0938B00C0938A00D4CF84B580684E
:1003A00084BDC7BDCFCF84B5806284BDC8BDCACF70
:1003B00080918000806880938000D0938900C093F2
:1003C0008800C0CF8091B00080688093B000C09357
:1003D000B300B8CF8091B00080628093B000C0932A
:1003E000B400B0CF0E94D4002B013C018EE1882ED6
:1003F000912CA12CB12C0E94D40064197509860996
:100400009709683E734081059105A8F3F1E08F1AC2
:100410009108A108B10828EE420E23E0521E611C8B
:10042000711C81149104A104B10429F7011511056F
:0E04300009F474CF0E94000071CFF894FFCF42
:00000001FF
