:100000000C945D000C9485000C9485000C94850084
:100010000C9485000C9485000C9485000C9485004C
:100020000C9485000C9485000C9485000C9485003C
:100030000C9485000C9485000C9485000C9485002C
:100040000C94DB020C9485000C94A9020C9483029E
:100050000C9485000C9485000C9485000C9485000C
:100060000C9485000C9485000000000024002700FB
:100070002A0000000000250028002B0004040404CE
:100080000404040402020202020203030303030342
:10009000010204081020408001020408102001021F
:1000A00004081020000000080002010000030407FB
:1000B0000000000000000000110511241FBECFEF5A
:1000C000D8E0DEBFCDBF11E0A0E0B1E0E2E7FEE0A6
:1000D00002C005900D92A233B107D9F721E0A2E347
:1000E000B1E001C01D92AE3DB207E1F710E0CDE5F1
:1000F000D0E004C02197FE010E943107CC35D10722
:10010000C9F70E9425030C9437070C940000EDEA10
:10011000F0E02491E9E9F0E09491E5E8F0E0E49181
:10012000EE23C9F0222339F0233001F1A8F4213065
:1001300019F1223029F1F0E0EE0FFF1FEE58FF4FCA
:10014000A591B4912FB7F894EC91811126C09095A8
:100150009E239C932FBF08952730A9F02830C9F023
:10016000243049F7209180002F7D03C0209180002A
:100170002F7720938000DFCF24B52F7724BDDBCFEE
:1001800024B52F7DFBCF2091B0002F772093B000B6
:10019000D2CF2091B0002F7DF9CF9E2BDACFAF9236
:1001A000BF92CF92DF92EF92FF920F931F93CF9364
:1001B000DF936C017B018B01040F151FEB015E01C6
:1001C000AE18BF08C017D10759F06991D601ED915B
:1001D000FC910190F081E02DC6010995892B79F7FA
:1001E000C501DF91CF911F910F91FF90EF90DF90AC
:1001F000CF90BF90AF900895FC01538D448D252F73
:1002000030E0842F90E0821B930B541710F0CF96B0
:10021000089501970895FC01918D828D981761F0E2
:10022000A28DAE0FBF2FB11D5D968C91928D9F5FF9
:100230009F73928F90E008958FEF9FEF0895FC01D8
:10024000918D828D981731F0828DE80FF11D858D8B
:1002500090E008958FEF9FEF0895FC01918D228D1E
:10026000892F90E0805C9F4F821B91098F739927A3
:10027000089581E491E00E942D0121E0892B09F489
:1002800020E0822F089580E090E0892B29F00E94E1
:10029000390181110C9400000895FC01A48DA80F70
:1002A000B92FB11DA35ABF4F2C91848D90E00196B8
:1002B0008F739927848FA689B7892C93A089B189D8
:1002C0008C91837080648C93938D848D981306C079
:1002D0000288F389E02D80818F7D80830895EF92DD
:1002E000FF920F931F93CF93DF93EC0181E0888FF0
:1002F0009B8D8C8D98131AC0E889F989808185FFC0
:1003000015C09FB7F894EE89FF896083E889F98961
:1003100080818370806480839FBF81E090E0DF9163
:10032000CF911F910F91FF90EF900895F62E0B8DB6
:1003300010E00F5F1F4F0F731127E02E8C8D8E1171
:100340000CC00FB607FCFACFE889F989808185FFD8
:10035000F5CFCE010E944D01F1CFEB8DEC0FFD2FBB
:10036000F11DE35AFF4FF0829FB7F8940B8FEA8993
:10037000FB8980818062CFCFCF93DF93EC01888DA2
:100380008823B9F0AA89BB89E889F9898C9185FD10
:1003900003C0808186FD0DC00FB607FCF7CF8C919E
:1003A00085FFF2CF808185FFEDCFCE010E944D0108
:1003B000E9CFDF91CF910895CF93DF9390E0FC01D7
:1003C000E057FF4F249184589F4FFC01849188236C
:1003D000D1F090E0880F991FFC01E859FF4FA591DB
:1003E000B491FC01EE58FF4FC591D49161110EC03C
:1003F0009FB7F8948C91E22FE0958E238C932881FF
:10040000E223E8839FBFDF91CF9108958FB7F894DF
:10041000EC91E22BEC938FBFF6CF3FB7F89480912D
:10042000370190913801A0913901B0913A0126B578
:10043000A89B05C02F3F19F00196A11DB11D3FBF1C
:10044000BA2FA92F982F8827BC01CD01620F711DEB
:10045000811D911D42E0660F771F881F991F4A95E5
:10046000D1F70895FC0101900020E9F73197AF0121
:10047000481B590BBC0181E491E00C94CF008F9292
:100480009F92AF92BF920F931F93CF93DF93CDB7FD
:10049000DEB7A1970FB6F894DEBF0FBECDBF19A28D
:1004A000423008F44AE08E010F5D1F4F842E912CDC
:1004B000B12CA12CA50194010E940F07E62FB901D0
:1004C000CA01EA30F4F4E05DD801EE938D01232BEC
:1004D000242B252B79F790E080E0109719F0CD01BF
:1004E0000E943202A1960FB6F894DEBF0FBECDBFB8
:1004F000DF91CF911F910F91BF90AF909F908F9000
:100500000895E95CE1CF1F920F920FB60F9211246C
:100510002F933F934F935F936F937F938F939F930B
:10052000AF93BF93EF93FF9381E491E00E944D015D
:10053000FF91EF91BF91AF919F918F917F916F91BB
:100540005F914F913F912F910F900FBE0F901F9091
:1005500018951F920F920FB60F9211242F938F931D
:100560009F93EF93FF93E0915101F09152018081AD
:10057000E0915701F091580182FD1BC0908180915C
:100580005A018F5F8F7320915B01821741F0E091D8
:100590005A01F0E0EF5BFE4F958F80935A01FF9177
:1005A000EF919F918F912F910F900FBE0F901F9001
:1005B00018958081F4CF1F920F920FB60F921124DD
:1005C0002F933F938F939F93AF93BF93809133016A
:1005D00090913401A0913501B091360130913201F2
:1005E00023E0230F2D3758F50196A11DB11D20934F
:1005F00032018093330190933401A0933501B0937D
:1006000036018091370190913801A0913901B09164
:100610003A010196A11DB11D8093370190933801D5
:10062000A0933901B0933A01BF91AF919F918F91FF
:100630003F912F910F900FBE0F901F90189526E8B5
:10064000230F0296A11DB11DD2CF789484B582608C
:1006500084BD84B5816084BD85B5826085BD85B566
:10066000816085BD80916E00816080936E001092E4
:10067000810080918100826080938100809181005F
:1006800081608093810080918000816080938000F0
:100690008091B10084608093B1008091B00081604E
:1006A0008093B00080917A00846080937A0080917A
:1006B0007A00826080937A0080917A0081608093D2
:1006C0007A0080917A00806880937A001092C1004D
:1006D00061E089E00E94DC0160E08EE00E94DC01C4
:1006E000E0915101F091520182E08083E0914D014F
:1006F000F0914E011082E0914F01F09150018FEC8A
:10070000808310925901E0915501F091560186E0E5
:100710008083E0915301F091540180818061808356
:10072000E0915301F0915401808188608083E091D1
:100730005301F0915401808180688083E0915301DE
:10074000F091540180818F7D808390E4992E0DEA91
:1007500010E0C0E0D0E090927C0080917A0080644C
:1007600080937A0080917A0086FDFCCF60917800BA
:1007700070917900072E000C880B990B0E94E805F8
:1007800020E030E040EA50E40E949D0620E030E0A6
:1007900040E85AE30E949D0660933D0170933E013C
:1007A00080933F01909340010E94B0056B015B0173
:1007B00070933C0160933B0181E00E94870061E0FF
:1007C00089E00E94DC01C114D10409F050C080E02E
:1007D0000E94870082E191E00E943202C0903D01B8
:1007E000D0903E01E0903F01F0904001A7019601BA
:1007F000C701B6010E940A07882309F480C082E27B
:1008000091E00E9432028EE291E00E9432020E9448
:100810000D022B013C0188EEC82E83E0D82EE12C7E
:10082000F12C0E940D026419750986099709683E2A
:10083000734081059105A8F321E0C21AD108E108AF
:10084000F10888EE480E83E0581E611C711CC1142B
:10085000D104E104F10429F7209709F47CCF0E9428
:100860003901882309F477CF0E94000074CF2FEF5D
:10087000C216D10411F481E0ABCFF801849183302A
:1008800021F148F48130B9F08230D1F0F0E8AF16B0
:10089000B1048CF79CCF873011F1883041F184305E
:1008A000A9F780918000806280938000D0928B00B5
:1008B000C0928A008FCF84B5806884BDC7BC8ACFC0
:1008C00084B5806284BDC8BC85CF8091800080687B
:1008D00080938000D0928900C09288007BCF809165
:1008E000B00080688093B000C092B30073CF809155
:1008F000B00080628093B000C092B4006BCF26013C
:100900003701E89477F82FEF3FEF4FE75FE7C30138
:10091000B2010E940A0781110DC02FEF3FEF4FE790
:100920005FE7C301B2010E94AB0518161CF486E212
:1009300091E067CF2FEF3FEF4FE75FE4C701B601CC
:100940000E94980618161CF48AE291E05ACF2FEF05
:100950003FEF4FE75FECC701B6010E94AB0587FD93
:10096000F3CF20E030E0A901C701B6010E94AB053A
:1009700087FF09C06DE281E491E00E946F01F7FA00
:10098000F094F7F8F0942AE037ED43EA5BE3C7010F
:10099000B6010E943F052B013C010E94B7056B0187
:1009A0007C010E94E6059B01AC01C301B2010E94DB
:1009B0003E052B013C014AE0C701B6010E943F02FF
:1009C0006EE281E491E00E946F0120E030E040E2BD
:1009D00051E4C301B2010E949D062B013C010E941B
:1009E000B7056B01F12CE12C4AE0C701B6010E946A
:1009F0003F02C701B6010E94E6059B01AC01C3019D
:100A0000B2010E943E0520E030E040E251E40E9445
:100A10009D060E94B70590E080E04AE00E943F02F8
:100A2000F2CEE1E4F1E01382128288EE93E0A0E0DE
:100A3000B0E084839583A683B78384E091E09183BB
:100A4000808385EC90E09587848784EC90E097879D
:100A5000868780EC90E0918B808B81EC90E0938B8B
:100A6000828B82EC90E0958B848B86EC90E0978B68
:100A7000868B118E128E138E148E08955058BB27BC
:100A8000AA270E9456050C945E060E94500638F074
:100A90000E94570620F039F49F3F19F426F40C9475
:100AA0004D060EF4E095E7FB0C944706E92F0E94F3
:100AB0006F0658F3BA17620773078407950720F08B
:100AC00079F4A6F50C9491060EF4E0950B2EBA2F4E
:100AD000A02D0B01B90190010C01CA01A001112444
:100AE000FF27591B99F0593F50F4503E68F11A16F0
:100AF000F040A22F232F342F4427585FF3CF469581
:100B000037952795A795F0405395C9F77EF41F16A2
:100B1000BA0B620B730B840BBAF09150A1F0FF0F6C
:100B2000BB1F661F771F881FC2F70EC0BA0F621F58
:100B3000731F841F48F4879577956795B795F79548
:100B40009E3F08F0B0CF9395880F08F09927EE0FDD
:100B50009795879508950E94230608F481E00895EB
:100B60000E94B7056894B1110C94920608950E94F2
:100B7000770688F09F5798F0B92F9927B751B0F0B2
:100B8000E1F0660F771F881F991F1AF0BA95C9F711
:100B900014C0B13091F00E949106B1E008950C9418
:100BA0009106672F782F8827B85F39F0B93FCCF3CB
:100BB000869577956795B395D9F73EF4909580958E
:100BC000709561957F4F8F4F9F4F0895E89409C0AE
:100BD00097FB3EF490958095709561957F4F8F4F70
:100BE0009F4F9923A9F0F92F96E9BB279395F69586
:100BF000879577956795B795F111F8CFFAF4BB0F04
:100C000011F460FF1BC06F5F7F4F8F4F9F4F16C067
:100C1000882311F096E911C0772321F09EE8872FF1
:100C2000762F05C0662371F096E8862F70E060E0AD
:100C30002AF09A95660F771F881FDAF7880F969526
:100C4000879597F90895990F0008550FAA0BE0E8CA
:100C5000FEEF16161706E807F907C0F0121613067E
:100C6000E407F50798F0621B730B840B950B39F4BE
:100C70000A2661F0232B242B252B21F408950A2624
:100C800009F4A140A6958FEF811D811D089597F964
:100C90009F6780E870E060E008959FEF80EC089522
:100CA00000240A941616170618060906089500244B
:100CB0000A9412161306140605060895092E0394C5
:100CC000000C11F4882352F0BB0F40F4BF2B11F439
:100CD00060FF04C06F5F7F4F8F4F9F4F089557FD98
:100CE0009058440F551F59F05F3F71F04795880F9A
:100CF00097FB991F61F09F3F79F087950895121631
:100D000013061406551FF2CF4695F1DF08C01616DC
:100D100017061806991FF1CF86957105610508948D
:100D20000895E894BB2766277727CB0197F90895A4
:100D30000E94230608F48FEF08950E94B0060C94D9
:100D40005E060E94500638F00E94570620F0952358
:100D500011F00C9447060C944D0611240C94920645
:100D60000E946F0670F3959FC1F3950F50E0551FD9
:100D7000629FF001729FBB27F00DB11D639FAA27F0
:100D8000F00DB11DAA1F649F6627B00DA11D661F3F
:100D9000829F2227B00DA11D621F739FB00DA11D60
:100DA000621F839FA00D611D221F749F3327A00D1A
:100DB000611D231F849F600D211D822F762F6A2FB6
:100DC00011249F5750409AF0F1F088234AF0EE0F1B
:100DD000FF1FBB1F661F771F881F91505040A9F748
:100DE0009E3F510580F00C9447060C9492065F3F9D
:100DF000E4F3983ED4F3869577956795B795F79584
:100E0000E7959F5FC1F7FE2B880F911D96958795FB
:100E100097F908950E942306880B990B0895A1E283
:100E20001A2EAA1BBB1BFD010DC0AA1FBB1FEE1F64
:100E3000FF1FA217B307E407F50720F0A21BB30BAF
:100E4000E40BF50B661F771F881F991F1A9469F72B
:100E500060957095809590959B01AC01BD01CF0187
:100E60000895EE0FFF1F0590F491E02D0994F8947A
:020E7000FFCFB2
:100E7200000000006F01CF00FC00BC012D010B013E
:100E82001F0174656D7065726174757265203A2018
:100E920020006E616E00696E66006F7666000D0A54
:020EA20000004E
:00000001FF
